:100000000C9414020C945B020C945B020C945B0243
:100010000C945B020C945B020C945B020C945B02EC
:100020000C945B020C945B020C94AA200C947E212D
:100030000C9429190C945B020C945B020C945B02E7
:100040000C945B020C945B020C945B020C945B02BC
:100050000C945B020C9474190C945B020C945B027C
:100060000C945B020C945B020C945B020C945B029C
:100070000C945B020C945B020C945B020C945B028C
:100080000C945B020C945B020C945B020C945B027C
:100090000C9486030C945B020C945B020C945B0240
:1000A0000C945B020C945B020C945B0201016201F4
:1000B0000162002A00380055005600240025002661
:1000C000002E0021002200230057001E001F0020E8
:1000D00000E1002700015137002800000000000067
:1000E00000005C0000520000000000500051004F72
:1000F00000000000000000000000000000010000FF
:1001000000000000000000000000002A2B28000072
:1001100000000000000000000000000000002900B6
:100120000000002C1E3420212224342627252E36C0
:100130002D3738271E1F202122232425263333362E
:100140002E37381F0405060708090A0B0C0D0E0F81
:10015000101112131415161718191A1B1C1D2F3104
:1001600030232D350405060708090A0B0C0D0E0F68
:10017000101112131415161718191A1B1C1D2F31E4
:1001800030354C00000000000000000000000000BE
:10019000000000000000007E0F00D4FFFFFFC7003A
:1001A00000007800010101010101010101020202C8
:1001B0000202020202020303030303030303040413
:1001C00004040404040505050505060606060607DD
:1001D0000707070708080808090909090A0A0A0B96
:1001E0000B0B0C0C0C0D0D0D0E0E0E0F0F0F101037
:1001F00011111112121313141415151616171718BE
:100200001819191A1A1B1B1C1D1D1E1E1F20202128
:100210002222232424252626272829292A2B2C2D6F
:100220002D2E2F30313232333435363738393A3B90
:100230003C3D3E3F404142434445464748494A4C85
:100240004D4E4F50515354555658595A5B5D5E5F51
:10025000616264656668696B6C6D6F7072737577E7
:10026000787A7B7D7E8082838587888A8C8E8F9149
:10027000939596989A9C9EA0A2A3A5A7A9ABADAF73
:10028000B1B3B5B7BABCBEC0C2C4C6C9CBCDCFD15D
:10029000D4D6D8DBDDDFE2E4E7E9EBEEF0F3F5F806
:1002A000FAFDFF040330000000180344004300304F
:1002B00000310020004E0075006D00700061006488
:1002C00000000016034D0065006300680062006FC7
:1002D0000061007200640073000000040309040957
:1002E000023B00020100A0FA090400000103010121
:1002F00000092111010001224000070581030800C7
:100300000A09040100010300000009211101000194
:1003100022BC000705820320000A12011001000020
:100320000008EDFE1310010001020301050109029E
:10033000A10185020901A10005091901290515007E
:10034000250195057501810295017503810105015E
:10035000093009311581257F950275088106093814
:100360001581257F950175088106050C0A3802154F
:1003700081257F950175088106C0C005010980A10E
:1003800001850319012AB700150126B700950175EB
:10039000108100C0050C0901A101850419012AA0E2
:1003A00002150126A002950175108100C005010902
:1003B00006A1018505050719E029E7150025019526
:1003C00008750181020507190029EF15002501951F
:1003D000F07501810205081901290595057501913E
:1003E00002950175039101C005010906A1010507E8
:1003F00019E029E71500250195087501810295018D
:10040000750881010507190029FF150026FF0095D1
:1004100006750881000508190129059505750191E2
:1004200002950175039101C011241FBECFEFDAE0E0
:10043000DEBFCDBF04B603FE27C080918E0290912F
:100440008F02A0919002B09191028730904BA7400B
:10045000B04BD1F410928E0210928F021092900243
:100460001092910214BE84B7877F84BF0FB6F894B0
:10047000A895809160008861809360001092600070
:100480000FBEE0E0F8E3099511E0A0E0B1E0E8EC90
:10049000F7E402C005900D92A838B107D9F722E021
:1004A000A8E8B1E001C01D92AE38B207E1F70E94A2
:1004B000021E0C94A6230C940000CF93DF93AEE1B0
:1004C000B1E043E251E0C1E0D0E08D91E82FE29548
:1004D000EF70F0E061A18F709E0101C0220F8A953C
:1004E000EAF7922F9095962391A382A1822B82A363
:1004F0004A175B0751F7AAE1B1E061E070E08D9126
:10050000E82FE295EF70F0E041A18F709B0101C0F0
:10051000220F8A95EAF7922F9095942391A382A1B6
:10052000822B82A381E0AE31B80749F710928D018A
:100530001092880110928E011092890110928F0101
:1005400010928A011092900110928B0110929101E9
:1005500010928C01DF91CF910C9428056F927F92BD
:100560008F929F92AF92BF92CF92DF92EF92FF92C3
:100570000F931F93CF93DF93C8E8D1E00EE111E012
:10058000EE24E394F12CDD24D394C8801992D80191
:100590008D918D01E82FE295EF70F0E091A18F70C1
:1005A000A70101C0440F8A95EAF7892F842B81A304
:1005B00082A1842E8094882182A3B0EABA95F1F7B3
:1005C0006AE171E090E080E03E0121E0621A71088A
:1005D000DB013D91BD01A32EA2942FE0A222B12CFC
:1005E000D50190962C91D3019C903F70570101C08A
:1005F000AA0C3A95EAF7A22220E031F42E2D082E1B
:1006000001C0220F0A94EAF72929D3012C930196FD
:1006100084309105E9F681A1882181A382A1482B2C
:1006200042A38C91C81641F0D09292010E945919B0
:100630009093940180939301B1E0CD38DB0709F0EA
:10064000A4CF809192018823F1F080919301909141
:1006500094010E9465190697B0F0809188018093FB
:100660008D018091890180938E0180918A01809310
:100670008F0180918B018093900180918C018093F8
:10068000910110929201809185028430B9F085E544
:100690008093530280918D018093540280918E014A
:1006A0008093550280918F01809356028091900132
:1006B0008093570280919101809358020E943005E7
:1006C00081E0DF91CF911F910F91FF90EF90DF902C
:1006D000CF90BF90AF909F908F907F906F90089534
:1006E000E82FF0E0E357FE4F808108950895809150
:1006F0008502843021F081E20E948003789408957D
:100700008093BA0085EC8093BC0008951F921FB6B9
:100710001F9211248F939F93EF93FF938091B900C1
:10072000887F8038C1F038F4882309F448C08036C7
:1007300079F081E022C0883A11F0883BD1F7E0914E
:100740009601F0E0EE5AFD4F80818093BB0031C0EE
:1007500010929501EECF80919501811122C0809178
:10076000BB0080939601809196018E31C0F010926B
:10077000960180E091E0909395019091BC00829564
:10078000880F880F807C892B85688093BC00FF913F
:10079000EF919F918F911F901FBE1F90189581E040
:1007A000E9CFE0919601F0E08091BB00EE5AFD4F59
:1007B0008083809196018F5F80939601BACF1092CB
:1007C000BC00B7CF0C94EA030C94EB030C94EC033D
:1007D0000C94FC03089508959C01FB0182818823F9
:1007E00049F028303D4539F48CEA90E00E94250517
:1007F00080E0089581E008950895CF92DF92EF920E
:10080000FF926B017C010E947117882311F08130E7
:1008100061F04FEF60E080E00E94D008C701B601B0
:10082000FF90EF90DF90CF90089540E060E08FEF71
:10083000F3CF6091F2017091F3018091F4019091F6
:10084000F5010C94FD0381E0089508950C942504AE
:100850001F93CF93DF9300D000D00F92CDB7DEB7B8
:1008600049835A836B833091AA0189819A8131111E
:100870001DC06623B9F02223A9F00E942D16182F5F
:10088000682F89819A810E94DA1569817A81812F86
:100890000F900F900F900F900F90DF91CF911F91BD
:1008A0000C9494050E940616182FEFCF0E942D1667
:1008B00069817A81EDCFFC01262F408151816281CF
:1008C000738184810C942804CF93DF93EC0160E062
:1008D0000E945B04BE01DF91CF910C942604FF922D
:1008E0000F931F93CF93DF93E82FF0E0ED5FFE4F60
:1008F000F490C82FC695C695C695D0E0FE01ED567A
:10090000FE4F0491877010E0082E02C015950795E0
:100910000A94E2F701701127CD57DE4FFE01C49112
:10092000D0E002C0D595C7958A95E2F7C170DD2762
:100930000115110519F081EE0E94CF0D209719F0D5
:1009400086EE0E94CF0D8F2D0E94B70ECD2B19F091
:1009500086EE0E94610E012B41F081EEDF91CF9176
:100960001F910F91FF900C94610EDF91CF911F9119
:100970000F91FF900895EF92FF920F931F93CF93E3
:10098000DF938C01F62E8AE0E82EF801849188230B
:1009900009F454C0813009F04DC0E8012196FE01F0
:1009A0008491813091F42196FE0184910E94B70ECA
:1009B0008E010F5F1F4F8F2D815038F3EFE9FFE05D
:1009C0003197F1F700C00000F7CF823039F4E80129
:1009D0002296FE0184910E94CF0DEACF833039F434
:1009E000E8012296FE0184910E94610EE1CF8430DD
:1009F000F9F6E8012296FE01249190E080E0FE01E4
:100A000031962053330B2A30310548F0019780F29C
:100A1000EFE9FFE03197F1F700C00000F7CFE89E63
:100A2000A001E99E500D1124C901840F951F249146
:100A3000EF01E5CF0E946F04E801BACFDF91CF91BB
:100A40001F910F91FF90EF90089560E00C94BB040C
:100A50000E94BE17811102C00E945B180C94E20331
:100A60000C94E40381E008950C943205CF93C82FD1
:100A70000E94E8038C2FCF910C94340508950E94B6
:100A800046110E943E052FEF84E39CE021508040F8
:100A90009040E1F700C000000C9498190F931F9349
:100AA000CF93DF93EC0161E00E945B048C01BE01F7
:100AB0000E94E603882359F1BE01C8010E94F30A8F
:100AC000882329F1BE01C8010E94340B8823F9F064
:100AD000BE01C8010E94570C8823C9F0BE01C8019D
:100AE0000E94020A882399F08A81882339F001152F
:100AF0008CE5180751F00E3D1C4579F0CE01DF91D1
:100B0000CF911F910F910C9423040E943F0580E028
:100B1000DF91CF911F910F9108950E945B18F7CF3D
:100B200090E080E008950895E72FF0E095E0899F38
:100B3000E00DF11D1124EE0FFF1FEE0FFF1FE60F5A
:100B4000F11DEE0FFF1FED54FF4F85919491089515
:100B5000FC01EE0FFF1FED55FE4F85919491089516
:100B6000CF93DF930E9494050E94C506EC01811586
:100B700020E5920708F042C0811530E4930708F0A1
:100B8000BDC0883E910528F5803E910508F09DC0C6
:100B9000883A910588F4853A910508F08FC0813034
:100BA000910509F492C0009709F48FC0049708F0EA
:100BB0008CC0D0E0C0E089C08F3B910508F489C0AB
:100BC000805C9109C03CD105A0F30E94A805EC010E
:100BD0007CC08115904250F4C11581E0D80708F01F
:100BE00074C0C03FD10528F3D0656FC0C11590E334
:100BF000D90708F079C0CE019F70E7CF811525E5B0
:100C0000920758F5811534E5930708F0A6C08115C1
:100C100042E5940750F4C11581E5D80708F471C086
:100C2000DC2FCC27C16FD06A50C0982F969596952F
:100C30009E0123703327C115D34508F07FC0C1E062
:100C4000D0E002C0CC0FDD1F2A95E2F720E2929F90
:100C5000C0011124C82BD92B6FC0C11589E5D80755
:100C6000A8F4C11598E5D90708F07CC0C11526E5A0
:100C7000D20708F09ECF8C2F0E945C07C82FD0E0CF
:100C8000DC2FCC27CC27DF71D0621FC0C1153AE51D
:100C9000D30708F46CC0CE0190568115904208F03D
:100CA00088CF8D2F8F710E945C0790E0982F882746
:100CB00088279F719C012C2BE901E6CFC55AD0E013
:100CC000CF5ADE4FC881D0E0D064CE01DF91CF9102
:100CD0000895C85AD0E0CC0FDD1FCD5DDE4F0990DE
:100CE000D881C02DD464F1CFCE019927D3FF03C0A2
:100CF000EC01D86CEACFEC01D06CE7CFDF70D06AA2
:100D0000E4CFCE01E4E096958795EA95E1F783700C
:100D10002C2F26952695237090E2299F900111246F
:100D2000382B8C2F8370C1E0D0E002C0CC0FDD1FC8
:100D30008A95E2F7C22BD32BDC68C7CFC1E0D0E0A5
:100D400002C0CC0FDD1F2A95E2F730E2939FC0016D
:100D50001124C82BD92BDA68B8CFD82FCC27C46F71
:100D6000D06AB3CFDC2FCC27C06FD06AAECF8C2F28
:100D70008F700E945C0734E0D695C7953A95E1F7ED
:100D8000CF709C2FEC01D069A0CF82389105B1F1D2
:100D9000B0F48133910509F475C048F489329105A6
:100DA00009F469C08A32910509F473C00895853346
:100DB000910509F459C08933910501F10895833EE5
:100DC0009105A9F138F4803E9105F9F0823E910534
:100DD00049F10895863E9105A9F1873E9105C9F133
:100DE000843E910519F52091800221FF1FC080915A
:100DF0007F0284FD14C087EE90E0089520917F0269
:100E00002370A1F080EE90E0089520917F0220FDF4
:100E100047C03091800230FF09C024FF44C090E0F9
:100E200080E004C020917F0222FDF7CF0895209139
:100E30007F0222FD3BC03091800230FDE3CF24FFD2
:100E4000F5CFEDCF20917F0223FFF0CF24FDE7CF38
:100E5000D2CF20917F0223FD2CC03091800231FF40
:100E6000EECF84EE90E0089520917F0225FFDECF43
:100E700089E290E0089520917F0225FFD7CF85E396
:100E800090E0089520917F0226FFD0CF8AE290E083
:100E9000089520917F0226FFC9CF81E390E0089555
:100EA00089E390E0089583EE90E0089582EE90E06B
:100EB000089586EE90E0089590917F0292FF06C01B
:100EC000282F28712830F9F4877F846093FF06C0AB
:100ED000282F28712831F1F4877E846120918002C7
:100EE00020FF06C0382F38713830D9F4877F8160F1
:100EF00021FF06C0282F28712831D1F4877E816117
:100F000094FD877E0895282F24712430F9F68B7F75
:100F10008860DCCF282F2471243101F78B7E886113
:100F2000DDCF382F3171313019F78E7F8860E0CFF7
:100F3000282F2171213121F78E7E8861E1CFAF9278
:100F4000BF92CF92DF92FF920F931F93CF93DF93C5
:100F5000362F472FE82FF0E0ED55FE4F71110DC0F1
:100F60006491762F862FDF91CF911F910F91FF9083
:100F7000DF90CF90BF90AF900895C72FD0E024911D
:100F8000F22E022F10E056E0659FC0011124EFEF12
:100F9000F0E0BF010E943023832F90E0880F991F5B
:100FA00035E5369FD001379FB00D11248A1B9B0B6E
:100FB000982F990F980F6F01CC1ADD0AC09ED001AF
:100FC000C19EB00DD09EB00D11248B2F949FA00117
:100FD0001124452F55276F01C41AD50AC09EA001C0
:100FE000C19E500DD09E500D11245F01A91AB10869
:100FF000AC9E6001AD9ED00CBC9ED00C1124CD2CBB
:10100000DD24EC19FD09E09FE001E19FD00DF09F88
:10101000D00D1124ED2F62307105A1F048F4611557
:10102000710569F06130710589F0EB2F852F07C0DC
:101030006430710571F088F066307105B1F76E2F7C
:10104000722F91CFE22F2B2F8D2FF9CFE22F252F4B
:10105000F6CFEB2F822F2D2FF2CF2B2F8F2DE52FB9
:10106000EECFCF93DF93762FE901682F842F0E9474
:101070009F07798368838A83DF91CF910895809158
:101080007002982F9E7F39F4809170028170826087
:101090008093700208958430B8F7089588E090E056
:1010A0000C946623CF92DF92EF92FF926B017C014A
:1010B0000E943F08B701A60188E090E0FF90EF9002
:1010C000DF90CF900C948423E0E7F2E083E080830C
:1010D00011828FEF82838383148260817181828188
:1010E00093810C94520880917402833018F48F5FBE
:1010F000809374026091700270917102809172020B
:10110000909173020C94520880917402882319F014
:10111000815080937402609170027091710280918D
:101120007202909173020C94520870E00C945A0A67
:10113000609101018091700280FF0AC080910001DE
:1011400023E0829FC00111248B589D4F0C94950879
:10115000809102019091030123E0829FF00111240C
:10116000EB58FD4F891750F71182108212828F5F62
:101170003396F8CFE0E7F2E080818E7F8083608154
:101180007181828193810E9452082FEF80E792E063
:10119000215080409040E1F700C000000C94980876
:1011A0009091700290FF14C0909102012091030170
:1011B00033E0939FF0011124EB58FD4F921710F08C
:1011C0000C9498088183608342839F5F3396F6CFA7
:1011D0000895EF92FF920F931F93CF93DF9300D068
:1011E0000F92CDB7DEB7F82E062F142FE22E809186
:1011F000700280FF28C0E82FE695F0E0EC5AFE4F21
:101200009081909398018E7F823059F49E012F5FD8
:101210003F4F8F2D0E9431084B8169818A810E9446
:10122000D008F09271020093720210937302EE20C4
:1012300051F06091700270917102809172029091F0
:1012400073020E9452080F900F900F90DF91CF9180
:101250001F910F91FF90EF900895E0E7F2E09181E8
:10126000282F4381628188E0890F0C94E90881E08E
:101270000C942D09E0E7F2E09181282F43816281EF
:1012800088EF890F0C94E90881E00C943A09E0E7B3
:10129000F2E0628121E1620F08F46FEF282F4381B1
:1012A00081810C94E90881E00C944709E0E7F2E0C1
:1012B000628121E1621B08F460E0282F4381818173
:1012C0000C94E90881E00C945609E0E7F2E04381D0
:1012D00021E1420F08F44FEF282F628181810C94A5
:1012E000E90881E00C946509E0E7F2E0438121E13F
:1012F000421B08F440E0282F628181810C94E908A8
:1013000081E00C94740920E00C94E908809170024B
:1013100080FF18C08170826080937002662351F054
:1013200060917002709171028091720290917302CB
:101330000E94520840917302609172028091710282
:101340000C9483090895682F81E00C94860981E04C
:101350000C94A309682F9091700296958FEF890FD6
:1013600009F481E00C94860981E00C94AA0961E0FB
:101370000C948609E0E7F2E08081816080838695A5
:101380000C94B7098091700280FD0C94BA080C94FB
:10139000BA0960E00C9486098091970181112CC0F4
:1013A0000E94BE17811104C00E945B180E9464084D
:1013B0000E944E08609370027093710280937202D3
:1013C000909373026E7F61F40E9464080E944E083D
:1013D0006093700270937102809372029093730213
:1013E0000E943F088091700280FF03C086950E9492
:1013F000C90981E0809397010895FA01811101C024
:10140000FB0109940F931F93CF938C01FB01C281C1
:10141000CC2309F44DC00E94C2168272F801E25C2E
:10142000FC45E431F10538F4E855FC4D0C945823A3
:101430000E94C209C0E08C2FCF911F910F91089597
:1014400044EB59E067EA79E00E94FD09F3CF47EAEF
:1014500059E064EB79E0F8CF44E459E067E379E0E0
:10146000F3CF47E359E064E479E0EECF42E659E098
:1014700063E579E0E9CF43E559E062E679E0E4CF5E
:1014800040E859E061E779E0DFCF41E759E060E803
:1014900079E0DACF44E858E063E778E0D5CF43E776
:1014A00058E064E878E0D0CF81E00E94B709C2CF6D
:1014B000C1E0C1CF539A4BB1477F5BB15860EFB7E2
:1014C000F8949B01220F331F260F371F280F391F57
:1014D0002817390741F4EFBF8FE594E00197F1F742
:1014E00000C000000895DC016D91CD0178E05BB98A
:1014F000000000C067FF4BB9660F000000C000C0CD
:1015000000C04BB900C07A9591F7E2CF0F931F93BB
:10151000CF93DF93C62FD42F022FFC018281882323
:10152000C9F060939C010E94591990939B0180938C
:101530009A0180E28C0F883008F050C0C77081E0BB
:1015400001C0880FCA95EAF7DF91CF911F910F91E3
:101550000C94CA0E10919C01161335C080919A010B
:1015600090919B010E946519883C910560F5C0E24D
:10157000CD0F1D17B9F080E2810F883040F417704D
:1015800081E001C0880F1A95EAF70E94D10EC83099
:1015900048F481E09D2F977001C0880F9A95EAF773
:1015A0000E94CA0E802F0E94B70EC830B8F4D770C0
:1015B00081E001C0880FDA95EAF7DF91CF911F91A2
:1015C0000F910C94D10E80E28C0F883038F4C770E4
:1015D00081E001C0880FCA95EAF7EFCFDF91CF9184
:1015E0001F910F9108959C01CB01233F4CE53407D7
:1015F00031F190F4283DFCE53F07E9F0293D4CE549
:10160000340769F1273D3C4579F426E241EE61EE6D
:101610000E94860A80E00895253FFCE53F07B9F067
:1016200090F0263F3C45B9F0FC0182818823D1F03F
:1016300010929C01089527E245EE65EEE9CF26E27F
:1016400041EE60EEE5CF27E245EE64EEE1CF26E223
:1016500041EE62EEDDCF27E245EE66EED9CF28E21D
:1016600041E0EBCF81E00895CF93DF93EC01FB01E4
:101670008281882309F419C1C230FCE5DF07C0F17B
:10168000C6319CE5D90730F09E012A5F3C452930E0
:10169000310570F50E94D1179093800280937F02EC
:1016A000C031ECE5DE0709F4CFC008F05BC0C830FC
:1016B0008CE5D80709F4B6C088F5C430ECE5DE0740
:1016C00009F4A8C0C0F4C2308CE5D80709F49CC066
:1016D00080917F028260C330DC4509F498C080911C
:1016E0007F02909180020E94DF170E94461180E0E5
:1016F000DF91CF91089580917F028061C630ECE543
:10170000DE0709F484C080917F028860C730DC4521
:1017100008F47DC080917F02806279C0CC308CE576
:10172000D80709F489C070F480917F028C60CA30B8
:10173000ECE5DE0709F46BC008F478C080917F0205
:101740008E7F65C0CE308CE5D80709F479C08091D2
:101750007F028B7FCF30DC4508F459C080917F0237
:101760008F7E55C0CB3FECE5DE0709F457C030F55E
:10177000C3318CE5D80709F46FC078F4C131ECE5CA
:10178000DE0709F465C0C231DC4509F0A8CF0E942C
:10179000461180917F028F773AC0C5318CE5D8071A
:1017A00009F462C008F476C0809180028160CA3F6B
:1017B000DC4509F094CF8093800291CFCF3FFCE5C8
:1017C000DF0709F44DC088F4809180028D7FCD3F02
:1017D0009CE5D90781F3809180028E7FCE3FDC4566
:1017E00050F3809180028360E6CFC130FDE5DF07D2
:1017F00009F459C008F444C080E0C230DD4509F066
:101800006ECF0E945D186BCF80917F0281608093C4
:101810007F0265CF80917F028460F9CF8091800242
:101820008260C9CF80917F028064F1CF0E9446110F
:1018300080917F028068EBCF80917F028D7FE7CF20
:1018400080917F02877FE3CF80917F028F7DDFCF02
:1018500080917F028F7BDBCF80917F02837FD7CF08
:10186000809180028C7FA7CF80917F0282FB992795
:1018700090F921E0922790FB82F990FB83F9C7CF82
:1018800080918002982F909591708E7F892B90FB8C
:1018900081F991CF0E94461190917F02892F97FB89
:1018A00087F98058B4CF81E0ACCF81E021CFCF93CE
:1018B000DF93EB0186319C4511F50E94C2169A8197
:1018C000992399F08A7A91E009F490E090939D0130
:1018D000811109C089E20E949D160E940E1780E0C6
:1018E000DF91CF91089585E3F6CF80919D0181111D
:1018F00004C089E20E94A416F0CF85E3FBCF81E00B
:10190000EFCF9093A3018093A2010895E091A201EB
:10191000F091A301309721F00190F081E02D09941E
:1019200080E00895E091A201F091A301309799F031
:1019300020911901222359F020917F0227FF07C02F
:10194000DC012C9111962C93119725E02C930280A9
:10195000F381E02D09940895E091A201F091A30193
:10196000309739F022E0DC012C930480F581E02DE2
:10197000099408952091A0013091A10128173907F9
:1019800071F09093A1018093A001E091A201F091E8
:10199000A301309721F00680F781E02D0994089586
:1019A00020919E0130919F012817390771F0909383
:1019B0009F0180939E01E091A201F091A3013097D5
:1019C00021F00084F185E02D0994089585B78068A1
:1019D00085BF85B7806885BF089508950C94ED0C88
:1019E0000C9419040E94E60C0E9477030C94EE0CF0
:1019F00081E008950C94F80C0E9450190E945D0239
:101A00000E94BC190E94CC090C94F00CAF92BF92BA
:101A1000CF92DF92EF92FF920F931F93CF93DF93BA
:101A2000CDB7DEB72A970FB6F894DEBF0FBECDBF95
:101A30000E94AE020E94FA0C882309F45FC085EA76
:101A4000A82E81E0B82E10E000E0C02E802F0E946A
:101A50007003E82EF501D1905F01D81609F448C053
:101A600080911F0281FD0E94760380E0FF24F394A1
:101A7000DE249D2D9F21B9F18E83CF82EF2081E05E
:101A800009F480E088870E9459198160782F9A872D
:101A900089874E815F8168858A850E94A00DF80143
:101AA000EB55FE4F8081F826F0820E94491B0E9470
:101AB000860C9091A401891791F10E94860C809365
:101AC000A4012A960FB6F894DEBF0FBECDBFDF91FA
:101AD000CF911F910F91FF90EF90DF90CF90BF902B
:101AE000AF900C9436058F5FFF0C843009F0C1CFA6
:101AF0000F5F1F4F0530110509F0A7CF8FEF8983C6
:101B00008A831B820E9459198160782F9D838C8360
:101B100049815A816B818D810E94A00DC6CF2A9682
:101B20000FB6F894DEBF0FBECDBFDF91CF911F91EE
:101B30000F91FF90EF90DF90CF90BF90AF900895FE
:101B4000CF93DF93CDB7DEB72B970FB6F894DEBFF8
:101B50000FBECDBF4F83588769877A878B871E82D8
:101B60001D8285E0FE013796DE01119601900D92EF
:101B70008A95E1F749815A816B817C818D819E81B3
:101B80002B960FB6F894DEBF0FBECDBFDF91CF917D
:101B90000C94BC13FC01808191810C946F16CF933F
:101BA000C82F882309F48BC08238C1F40E94860CA8
:101BB00081FD85C089E30E949D160E940E172FEFBC
:101BC00081EE94E0215080409040E1F700C0000099
:101BD00089E30E94A416CF910C940E178338A1F4C8
:101BE0000E94860C80FD6BC083E50E949D160E94BA
:101BF0000E172FEF81EE94E0215080409040E1F7E6
:101C000000C0000083E5E5CF8438A1F40E94860C73
:101C100082FD55C087E40E949D160E940E172FEF8B
:101C200081EE94E0215080409040E1F700C0000038
:101C300087E4CFCF8CEF8C0F813A90F46C2F80919A
:101C40000501909106010E947618882329F08C2FB7
:101C50000E94A4160E940E178C2F0E949D16BBCFC7
:101C600080E28C0F883048F4C77081E001C0880F93
:101C7000CA95EAF70E94C516AECFEBE5EC0FE3304C
:101C800040F4F0E0EC57FE4F808190E0CF910C944F
:101C9000BA0CE8E5EC0FE73150F4F0E0EE0FFF1F6F
:101CA000EA5AFE4F80819181CF910C94D00CC03FB5
:101CB00030F08C2F0E94571ACF910C943E1BCF917D
:101CC0000895882309F452C0823871F40E94860C6A
:101CD00081FF4CC089E30E949D160E940E1789E384
:101CE0000E94A4160C940E17833859F40E94860C97
:101CF00080FF3CC083E50E949D160E940E1783E57D
:101D0000EFCF843859F40E94860C82FF2FC087E4FD
:101D10000E949D160E940E1787E4E2CF9CEF980F59
:101D2000913AF0F290E2980F983050F4877091E079
:101D300001C0990F8A95EAF7892F0E94CB16D2CF5E
:101D40009BE5980F933020F490E080E00C94BA0C5F
:101D500098E5980F973120F490E080E00C94D00C37
:101D6000803F20F00E94BF1A0C943E1B0895CF9331
:101D7000C82F0E94CF0DC93349F42FEF87EE93E0AF
:101D8000215080409040E1F700C000008C2FCF919F
:101D90000C94610E882321F00E94C5160C940E1736
:101DA0000895882321F00E94CB160C940E170895F5
:101DB000BF92CF92DF92EF92FF920F931F93CF9338
:101DC000DF936C01D62FC72FFC01058102950F70A0
:101DD000128111110E94E2160E94BB16E82E882380
:101DE00091F01123D1F08C2F807F803421F080E29C
:101DF0008D0F883090F082E00E9459170E94BB1628
:101E000091E0E82EE926BC2EB2949FE0B922EB2D9A
:101E1000F0E0E454FC4D0C945823E12CF4CF0C2F4B
:101E20000F70C07F11F00295007F1123A9F00023ED
:101E300059F080E28D0F883010F0D11109C0802F49
:101E40000E94C5160E940E178D2F0E94CF0D14C040
:101E5000802F0E94D516F6CF8D2F0E94610E002391
:101E600059F080E28D0F883010F0D1112CC0802FF6
:101E70000E94CB160E940E172B2D2850330B2430B6
:101E8000310520F40E94860C0E943605EE2009F4EC
:101E90009EC10E94B71680FD9AC1F60112820E946F
:101EA000B1160E943E15C6010E9408110E94B1168B
:101EB000DF91CF911F910F91FF90EF90DF90CF9026
:101EC000BF900C945F15802F0E94DB16D3CFFC2FA0
:101ED000FF70FF2EC07FC03219F0F29480EFF8221D
:101EE000DD2369F0D13049F1112391F1002351F143
:101EF000F601858180FFA8CF8F70858323C01123D1
:101F000081F0011106C00E94F5168F290E94CA0EA9
:101F1000B3CF0130C1F70E94F5168F290E94FB163E
:101F2000ABCF011106C00E9404178F2D0E94D10E65
:101F3000A3CF013009F4A0CFF6CF112329F006304A
:101F400008F09ACF8F2DE2CF053008F095CFEDCF76
:101F5000002359F3D93349F4FFEF27EE33E0F15072
:101F600020403040E1F700C000008D2F0E94610E3C
:101F700083CF8C2F86958695837069F0813009F028
:101F80007BCF8D2F9C2F9370111102C090E080E0C9
:101F90000E94D00C71CF8D2F9C2F9370111102C015
:101FA00090E080E00E94BA0C67CF8D2F112329F0BA
:101FB0000E94571A0E943E1B5FCF0E94BF1AFACFA1
:101FC0008C2F837009F041C0111156CF4D2F4295CF
:101FD00046954770440F440F0D2F0F7010E030E00E
:101FE00020E0042E04C0000F111F221F331F0A948B
:101FF000D2F760E070E0CB01D4FF0FC06FE070E07B
:1020000080E090E004C0660F771F881F991F4A95F3
:10201000D2F76095709580959095C695C695C370DA
:10202000602B712B822B932BC23049F058F4C130B6
:1020300019F00E94F21420CF0E94E0141DCF0E94DC
:1020400004151ACF0E94DE1417CF8695112311F0C4
:102050008C2F8170882309F40FCF4D2F4295469520
:102060004770440F440F0D2F0F7010E030E020E058
:10207000042E04C0000F111F221F331F0A94D2F731
:1020800060E070E0CB01D4FF0FC06FE070E080E053
:1020900090E004C0660F771F881F991F4A95D2F7FA
:1020A0006095709580959095C695C695C370602B88
:1020B000712B822B932BC23049F058F4C13019F0A8
:1020C0000E94B515D9CE0E94A315D6CE0E94C71581
:1020D000D3CE0E941815D0CECF70112329F08C2FAB
:1020E0000E943E158D2F12CF8D2F0E94D10E8C2F66
:1020F0000E945F15C1CED23F89F160F4D03FC9F094
:10210000D13F29F1112309F442C001119DCE8C2F3A
:102110008F7121C0D33F39F1D43FA1F7112369F169
:10212000CF718C2F0E943E1563E08C2F0E944417C4
:10213000A3CE112341F0053008F09ECE8C2F8F7175
:102140000E94821599CE063008F096CEF7CF8C2FDC
:102150008F71112369F20E943E158ECE8C2F8F71E4
:102160001123C9F3C5CF112329F08C2F8F710E9441
:10217000291582CE0E9424157FCE81E00E94591736
:10218000023008F479CE82E00E94591775CE002300
:1021900059F0D93309F0E9CE8FEF97EEE3E08150A3
:1021A0009040E040E1F7DFCE8C2F8F71A1CF4C2F14
:1021B0004F706D2FC6010E9490050E9456145CCE90
:1021C0004C2F4F706D2FC6010E94930555CEDF91A5
:1021D000CF911F910F91FF90EF90DF90CF90BF9024
:1021E00008950F931F93CF93DF93EC01688179815A
:1021F0008A810E9479168C010E94D9150E94DD14F3
:10220000B801CE01DF91CF911F910F910C94D80EA0
:10221000CF93DF93EC018B819C81892B29F08881FE
:10222000998189238F3F59F4DF91CF910895CE0191
:102230000E94F110CE01DF91CF910C946404CE0185
:102240000E944E058111F3CF0E94BB16882361F3D3
:102250008A81882349F382E0DF91CF910C9459174A
:102260000E94E2160E94F2160E940E170E94631C42
:102270000E943E1B90E080E00E94BA0C90E080E05B
:102280000C94D00C0E94AB160C9430110E94D21604
:102290000C944211E92FE295EF70E250EE3070F4A9
:1022A000F0E0E453FC4D0C945823803F19F020F4E7
:1022B000883E20F481E00895843FE1F380E00895B2
:1022C000883EC0F3813FD1F7F5CF93FB882780F993
:1022D00008950E946F160C944A11CF93DF9300D09B
:1022E00000D00F92CDB7DEB70F900F900F900F90E8
:1022F0000F90DF91CF910895CF93DF9300D000D05E
:1023000000D0CDB7DEB726960FB6F894DEBF0FBE6D
:10231000CDBFDF91CF9108951F93CF93DF93C091ED
:10232000AB0116E08091AC018C1304C0DF91CF911A
:102330001F910895D0E01C9FF0011D9FF00D112406
:10234000E355FE4F40815181628173818481958183
:102350000E947C112196C770E5CF4091DD0150911C
:10236000DE016091DF017091E0018091E1019091C7
:10237000E2010C947C111F93CF93DF938091E201D3
:10238000807FA9F48091DF01882389F08091AB01DF
:10239000C091AC016091DD017091DE01A091E0017E
:1023A000B091E101D62FD72316E0C81304C0DF9106
:1023B000CF911F91089590E0109711F0DF3F19F42D
:1023C00001968770F2CF189F9001199F300D11244C
:1023D000F901E355FE4F41814713F2CF4081461387
:1023E000EFCF42814111ECCF438154814A1B5B0BFB
:1023F000483C510528F78091E2018F7080618093FD
:10240000E201F901EE54FE4F80818F70806180837C
:102410008DED91E00E940811DF91CF911F910C94F6
:102420008C11AF92BF92CF92DF92EF92FF920F93F7
:102430001F93CF93DF93CDB7DEB761970FB6F894B4
:10244000DEBF0FBECDBF8C0185E0F801DE011D9619
:1024500001900D928A95E1F7F80140815181E28067
:102460008DEDC82E81E0D82E6091E0017091E101E0
:102470006115710509F461C19091DD012091DE01C2
:10248000892F82238F3F09F458C1A380B480F09034
:10249000DF01F501E61BF70BFF2009F4FCC080917A
:1024A000E201382F307FE83CF10508F0B2C031116D
:1024B00079C0FE2C251323C0941321C0E1101FC046
:1024C0008F7080618093E2010E94AD11C6010E946D
:1024D00008118091E201F80185838F2D61960FB676
:1024E000F894DEBF0FBECDBFDF91CF911F910F914A
:1024F000FF90EF90DF90CF90BF90AF900895AB2802
:1025000029F0842F85238F3F09F033C180E0F82F15
:10251000F170DF2E80FF3CC08091AB012091AC01B7
:1025200036E0821315C04D875E878D859E850E949B
:102530006F16292F22952F702230F0F0243018F5D5
:102540009F70F1F0F8019581907FD1F4D12C1EC0DD
:1025500090E0389FF001399FF00D1124E355FE4FB4
:102560006181651306C06081641303C062816E11CE
:102570000FC001968770D5CF9F7011F0882331F37B
:10258000805E883018F3C8010E940811FD2CA5CF89
:10259000EE2009F4A2CF8091E20181608093E201F4
:1025A000F12C9BCF251306C0941304C0F801EE2034
:1025B00009F48DC04D875E878D859E850E946911C7
:1025C000882319F1EE2009F18091E201803270F048
:1025D0002091DD013091DE0138872F831986BB867B
:1025E000AA868C87CE0107960E94081186E0F80122
:1025F000ADEDB1E001900D928A95E1F70E94BB111B
:102600000E94AD11FF24F39468CFC8010E94081105
:10261000F9CF311113C07A2DB98AA88A6E2D898914
:102620000E946D118DED91E00E94081186E0F60187
:1026300011928A95E9F70E94AD11B2CF25130FC010
:1026400094130DC0E1100BC0F8018583C8010E94EE
:10265000081186E0F60111928A95E9F73ECF4D8781
:102660005E878D859E850E946911882371F2EE2018
:1026700061F28091E201803208F4B8CF2091DD014F
:102680003091DE013A8329831B82BD82AC828E8326
:10269000CE010196A9CFE83CF10508F041C0FE2C1F
:1026A000EE2009F4B2CF25132AC0941328C08091DC
:1026B000E20180FD1BC0982F907FC1F0F801858357
:1026C000903F31F0982F907F905F8F70892B85839A
:1026D000C8010E94081186E0F801ADEDB1E001905B
:1026E0000D928A95E1F70E94AD11F7CE86E0F801D0
:1026F000ADEDB1E001900D928A95E1F7EECE4D87F8
:102700005E878D859E850E94691181116FCF8091B2
:10271000E20181608093E201C8010E940811DDCED0
:102720007A2DB98AA88A6E2D89890E946D1186E05A
:10273000F60111928A95E9F7D6CFEE2009F465CF1C
:102740004D875E878D859E850E946911F82E8823AE
:1027500009F45BCF86E0F801ADEDB1E001900D9298
:102760008A95E1F78DED91E00E94CA0D0E94BB11A0
:10277000BACF81E08E25CBCE1F93CF93DF93CDB719
:10278000DEB72C970FB6F894DEBF0FBECDBF4F83D8
:10279000588769877A878B879C87CE0107960E9426
:1027A0001112882369F08A859B85892B39F04F8126
:1027B0005885842F85238F3F09F071C016E05FC0D4
:1027C00086E0FE013796DE01119601900D928A9502
:1027D000E1F78A859B85892B89F388859F818923E9
:1027E0008F3F61F32091AC0130E0C9010196877001
:1027F00099274091AB014817190671F40E944611C0
:102800001092AC011092AB0186E0EDEDF1E0DF013A
:102810001D928A95E9F7D2CF96E0929FD001939FBF
:10282000B00D1124A355BE4FFE01319601900D92BB
:102830009A95E1F78093AC010E948C11BFCF819FE4
:10284000C001112483559E4F0E9411128823E9F084
:10285000E091AB011E9FF0011124E355FE4F408132
:10286000518162817381848195810E947C11809164
:10287000AB0190E00196877099278093AB0180911E
:10288000AB019091AC018913DACF2C960FB6F89476
:10289000DEBF0FBECDBFDF91CF911F910895698537
:1028A0007A858B859C850E947C1188CFEF92FF9260
:1028B0000F931F93CF93DF938C01892B81F0F12C21
:1028C000EE24E394E8012196F8018491843770F4B2
:1028D000843008F05FC08130B1F08230A1F1DF9127
:1028E000CF911F910F91FF90EF900895853709F4D4
:1028F0004CC008F43DC09CE7980F903780F78F7765
:102900000E94610E49C00E5F1F4FFE01849190E24C
:10291000980F983060F48770FE2D01C0FF0F8A95E4
:10292000EAF78F2F0E94E5160E940E1702C00E9440
:10293000CF0D8F2D815030F2EFE9FFE03197F1F7A5
:1029400000C00000F7CF0E5F1F4FFE01849190E2A0
:10295000980F983050F48770FE2D01C0FF0F8A95B4
:10296000EAF78F2F0E94EB16DFCF0E94610EE1CFB6
:102970000E5F1F4FFE01C491C150D8F28FE99FE056
:102980000197F1F700C00000F7CF0E5F1F4FFE0167
:10299000F490CFCF0E94CF0D8E01CBCF08950C9431
:1029A000CE140E94CF146093F6017093F7018093C8
:1029B000F8019093F9010C94301108950C94D114FE
:1029C0000F931F930091F6011091F7012091F801E8
:1029D0003091F901602B712B822B932B1F910F915A
:1029E0000C94D1140F931F930091F6011091F701ED
:1029F0002091F8013091F901602371238223932300
:102A00001F910F910C94D1140F931F930091F60115
:102A10001091F7012091F8013091F9016027712799
:102A2000822793271F910F910C94D1140C94FD03CE
:102A30000E9416156093F2017093F3018093F401E4
:102A40009093F5010C94301160E070E0CB010C9490
:102A500018150F931F9341E050E060E070E08A0189
:102A60009B0104C0000F111F221F331F8A95D2F74C
:102A7000C901B8011F910F910C9418150F931F9362
:102A800041E050E060E070E004C0440F551F661F55
:102A9000771F8A95D2F78091F2019091F301A0916E
:102AA000F401B091F5018A019B01082B192B2A2B07
:102AB0003B2BC901B8011F910F910C9418150F936E
:102AC0001F9341E050E060E070E004C0440F551FE8
:102AD000661F771F8A95D2F7CB01BA016095709572
:102AE000809590950091F2011091F3012091F401ED
:102AF0003091F50160237123822393231F910F915D
:102B00000C9418150F931F9341E050E060E070E0C3
:102B100004C0440F551F661F771F8A95D2F7809116
:102B2000F2019091F301A091F401B091F5018A01B5
:102B30009B01082719272A273B27C901B8011F91A4
:102B40000F910C9418150F931F930091F20110919F
:102B5000F3012091F4013091F501602B712B822B50
:102B6000932B1F910F910C9418150F931F930091A5
:102B7000F2011091F3012091F4013091F5016023ED
:102B80007123822393231F910F910C9418150F9397
:102B90001F930091F2011091F3012091F401309103
:102BA000F50160277127822793271F910F910C94BD
:102BB00018150895990F990F890F982F977041E074
:102BC00001C0440F9A95EAF786958695869595E01B
:102BD000899FF0011124ED51FE4F30E020E070E0BC
:102BE0005191DF011197CB01022E02C09695879576
:102BF0000A94E2F7817081958527842385278C9339
:102C00002F5F3F4F2530310559F70895990F990FE0
:102C1000890F982F977086958695869525E0829FD7
:102C2000F0011124ED51FE4F50E040E080E0219191
:102C300030E0092E02C0369527950A94E2F72170FC
:102C40003327042E01C0220F0A94EAF7822B4F5F2C
:102C50005F4F4530510559F70895BF92CF92DF92EB
:102C6000EF92FF920F931F93CF93DF938C01C0904D
:102C7000F201D090F301E090F401F090F501809121
:102C8000F6019091F701A091F801B091F901C82ADD
:102C9000D92AEA2AFB2ACFE1D0E0BC2ED701C6010F
:102CA0000C2E04C0B695A795979587950A94D2F7F0
:102CB00080FD0EC0219788F7B12C8B2DDF91CF912D
:102CC0001F910F91FF90EF90DF90CF90BF900895EC
:102CD000B8018C2F0E94B005019761F3EECFCF931E
:102CE000DF93EC010E942D16BE01DF91CF910C9471
:102CF000B0051F93CF93DF93EB019091AA01992325
:102D000031F0CB01DF91CF911F910C946F16882386
:102D100079F0CB010E942D16182F682FCE010E944A
:102D2000DA15BE01812FDF91CF911F910C94B00570
:102D3000CB010E940616182FF4CF682F8091050151
:102D4000909106010C94F618682F809105019091DE
:102D500006010C94011980910501909106010C94D3
:102D60000C198091FA018595859585950895809136
:102D7000FA01877008959091FA01977081E009F443
:102D800080E0089580911E02089590911E02892B83
:102D900080931E020895809590911E02982390932F
:102DA0001E02089510921E02089590911D02892B13
:102DB00080931D020895809590911D029823909311
:102DC0001D02089510921D02089590911C02892BF6
:102DD00080931C020895809590911C0298239093F3
:102DE0001C02089510921C0208958091FB01089521
:102DF00008950C94F8169091FB01981721F0809398
:102E0000FB010C94F91608958091FB01882329F0A9
:102E10001092FB0180E00C94F9160895E0910501F1
:102E2000F091060180911E028083E0910501F091EE
:102E30000601808190911D02892B8083E09105011C
:102E4000F0910601808190911C02892B80839091E2
:102E5000FB01992381F0E0910501F0910601808149
:102E6000892B808380910501909106010E94621850
:102E700081110E94041780910501909106010C9424
:102E8000920C08950C94411798E0899F90011124A9
:102E9000622B6093FA010E943E158091FA0185959C
:102EA000859585950C9442171092FA0180E00C9458
:102EB00042179091FA01809589238093FA01282F77
:102EC000277071F4282F082E000C330B921713066D
:102ED00039F08595859585950E945F150C9454175A
:102EE0000895CF92DF92EF92FF926C01EE24FF24BF
:102EF00020E0C114D104E104F10419F0C701B601C6
:102F000020E1C72ED82EE92EFF24C114D104E104FC
:102F1000F10419F0285FC701B6016B017C0154E090
:102F2000F694E794D794C7945A95D1F7C114D10475
:102F3000E104F10419F02C5FC701B6016B017C01BB
:102F400042E0F694E794D794C7944A95D1F7C11418
:102F5000D104E104F10419F02E5FC701B601969582
:102F6000879577956795672B682B692B09F02F5FFD
:102F7000822FFF90EF90DF90CF90089590E080E057
:102F80000E946C2321E08C3E9E4F09F020E0822FAE
:102F9000089582E090E00C945E2383E090E00C942E
:102FA0005E23CF9384E090E00E945E23C82F81E2ED
:102FB00090E00E945E23982F8C2FCF910895CF939D
:102FC000C92F682F84E090E00E9472236C2F81E269
:102FD00090E0CF910C947223AB01BC018FE090E0A4
:102FE0000C948423AB01BC0183E190E00C94842316
:102FF00060E070E0CB010C94F21760E070E0CB0170
:103000000E94EC170C94F8176CEE7EEF90E080E0D5
:103010000E94902360E082E090E00E94722360E0D2
:1030200083E090E00E9472231092F6011092F70163
:103030001092F8011092F90160E084E090E00E94A3
:10304000722360E081E290E00E94722360E085E0FC
:1030500090E00E94722360E086E090E00E9472237C
:103060006FEF87E090E00E94722340E050E0BA01E9
:1030700088E090E00E94842360E08DE090E00E9470
:10308000722340E050E0BA0188E190E00E9484237E
:1030900060E087E190E00E94722340E050E0BA01D6
:1030A0008CE190E00E94842360E080E290E00E9446
:1030B00072230C94FD170C940418682F8EE090E096
:1030C0000C947223FC01329680911901882321F01F
:1030D00080917F029EE187FF96E080E0915008F4A6
:1030E000089521912223D1F38F5FF8CF662301F158
:1030F000209119012223F1F020917F0227FF1AC0AD
:10310000462F4695469546954E3190F4677021E0DE
:1031100030E002C0220F331F6A95E2F7840F911D41
:10312000FC01828190E02823392381E0232B69F47C
:1031300080E00895FC01329608962191261721F02F
:10314000E817F907D1F7F4CF81E008959C01FC015D
:1031500032969FEF80E04191461751F09F3F19F45E
:10316000411101C0982F8F5F8630A9F79F3F09F466
:103170000895290F311D97FD3A95F901628308954D
:10318000FC01329608962191261303C0DF011197A6
:103190001C92E817F907B9F70895E62FE695E6952A
:1031A000E695EE3168F4E80FF92FF11D677021E024
:1031B00030E001C0220F6A95EAF78281822B828378
:1031C0000895E62FE695E695E695EE3170F4E80F62
:1031D000F92FF11D677021E030E001C0220F6A95E0
:1031E000EAF72095828128232283089520911901EE
:1031F000222329F020917F0227FD0C94CD180C94F6
:10320000A61820911901222329F020917F0227FD81
:103210000C94E1180C94C018FC01329680911901AD
:10322000882351F080917F0287FF06C08EE1DF0185
:103230001D928A95E9F7089586E0F9CF08950C94D8
:103240001E190E9446110E94860C0E9436050C949D
:103250001F191F921FB61F9211248F939F93AF9334
:10326000BF9380912002811113C080917B029091C5
:103270007C02A0917D02B0917E024196A11DB11DFC
:1032800080937B0290937C02A0937D02B0937E0298
:10329000BF91AF919F918F911F901FBE1F90189566
:1032A00082E084BD93E095BD9AEF97BD80936E0058
:1032B00008952FB7F89480917B0290917C02A091A1
:1032C0007D02B0917E022FBF08959C014FB7F89404
:1032D00080917B0290917C02A0917D02B0917E0250
:1032E0004FBF821B930B089578941F921FB61F92B5
:1032F00011248F939F93AF93BF9380917B02909102
:103300007C02A0917D02B0917E020196A11DB11DAB
:1033100080937B0290937C02A0937D02B0937E0207
:10332000BF91AF919F918F911F901FBE1F901895D5
:1033300081E08093E00080E28093D8001092C90081
:103340008FE19EE40197F1F700C0000087E090EB69
:10335000DC0180938E0290938F02A0939002B09331
:10336000910288E19CE00FB6F894A89580936000E4
:103370000FBE90936000FFCF0E94BE17811102C064
:103380000E945B180E94C91780931F020E94D117E8
:103390009093800280937F020E94CD17682F70E087
:1033A00090E080E00C94DE148091280280FF12C02F
:1033B00060910C0185E0689FB001112475956795B7
:1033C0007595679560387105A8F561157105A1F1CE
:1033D000862F089581FF09C060910C0185E0689FE8
:1033E000B001112475956795EDCF60910C0182FDB8
:1033F0000AC0809127028823D1F090910B0160913F
:103400000C01891728F085E0689FB0011124DACFFC
:10341000869FB001112485E0869F9001879F300D23
:103420001124692F70E0C9010E944423CBCF65E0CD
:1034300070E0CECF8FE7089581E008958091280253
:1034400080FF0CC06091080170E0759567957595D7
:1034500067956115710549F1862F089581FF06C0B2
:103460006091080170E075956795F3CF6091080150
:1034700082FD0BC0909127029923A1F06091070172
:1034800080910801961738F0682F70E06038710558
:1034900000F38FE70895899FC001112470E00E9416
:1034A0004423F4CF61E070E0D7CF81E00895803FFE
:1034B00031F40E94D419819580932C020895813FA4
:1034C00019F40E94D419F8CF823F31F40E94D41924
:1034D000819580932B020895833F19F40E94D4199B
:1034E000F8CF893F29F40E941E1A80932D02089577
:1034F0008A3F21F40E941E1A8195F7CF8B3F31F449
:103500000E941E1A819580932E0208958C3F19F413
:103510000E941E1AF8CF843F31F480912A02816004
:1035200080932A020895853F21F480912A028260C7
:10353000F7CF863F21F480912A028460F1CF873F44
:1035400021F480912A028860EBCF883F21F480919A
:103550002A028061E5CF8D3F31F48091280281609D
:103560008093280208958E3F21F480912802826082
:10357000F7CF8F3FB9F7809128028460F1CF909107
:103580002B02803F41F480912C0287FD10922C0287
:10359000992371F00895813F29F480912C02181627
:1035A000ACF3F6CF823F81F497FFF2CF10922B025B
:1035B00080912C0290912D02892B90912E02892BC3
:1035C00049F7109227020895833F19F4191674F3EE
:1035D000DFCF893F39F480912D021816CCF6109276
:1035E0002D02D6CF8A3F29F480912D0287FFD0CFBC
:1035F000F6CF8B3F39F480912E0287FFC9CF10920E
:103600002E02C6CF8C3F29F480912E021816BCF3EF
:10361000BFCF843F31F480912A028E7F80932A02AB
:10362000B7CF853F21F480912A028D7FF7CF863F67
:1036300021F480912A028B7FF1CF873F21F4809182
:103640002A02877FEBCF883F21F480912A028F7E68
:10365000E5CF8D3F31F4809128028E7F8093280240
:1036600097CF8E3F21F4809128028D7FF7CF8F3F37
:1036700009F08ECF809128028B7FF0CF89E292E013
:103680000E94AC0C0E945919909326028093250247
:103690000895CF93DF9300D000D000D0CDB7DEB730
:1036A00086E0E9E2F2E0DE01119601900D928A9542
:1036B000E1F780912B0290912C02892B81F080916F
:1036C0002302909124020E946519AC019091270277
:1036D000992331F180910D018417150670F18091C5
:1036E0002D0290912E02892B91F0809121029091D0
:1036F00022020E946519AC0190912702992309F4D6
:1037000078C0809109018417150608F480C02696B8
:103710000FB6F894DEBF0FBECDBFDF91CF910895F5
:1037200020910E018AE0289F90011124241735076B
:10373000B0F69F5F9093270202C09F3FD1F710928F
:103740002D0210922E0280912B02181624F40E9452
:10375000D41980932B0280912B0287FF05C00E9411
:10376000D419819580932B0280912C02181624F491
:103770000E94D41980932C0280912C0287FF05C0EF
:103780000E94D419819580932C0230912B0233230F
:10379000A1F020912C02222381F045EB3403C001DB
:1037A00011249923F1F090932B0245EB240390010F
:1037B00011243323D1F030932C020E943E1B8091C0
:1037C000250290912602909324028093230286E0A2
:1037D000FE013196A9E2B2E001900D928A95E1F7DF
:1037E0007ECF81E080932B02E0CF81E080932C029A
:1037F000E4CF20910A018AE0289F90011124241728
:10380000350708F084CF9F5F9093270202C09F3F47
:10381000D1F710922B0210922C0280912D021816D3
:1038200024F40E941E1A80932D0280912D0287FF9E
:1038300005C00E941E1A819580932D0280912E0250
:10384000181624F40E941E1A80932E0280912E02D4
:1038500087FF05C00E941E1A819580932E02309129
:103860002D023323A1F020912E02222381F045EB7B
:103870003403C00111249923F1F090932D0245EBFC
:103880002403900111243323D1F030932E020E949F
:103890003E1B8091250290912602909322028093F4
:1038A000210286E0FE013196A9E2B2E001900D927C
:1038B0008A95E1F72CCF81E080932D02E0CF81E063
:1038C00080932E02E4CF86E0E9E2F2E0DF011D9270
:1038D0008A95E9F7109227021092280208958091A4
:1038E0004F020895CF93DF9300D00F92CDB7DEB78C
:1038F00090918502943019F589837B836A8382E0F5
:103900008093E9008FEF9091E800815095FD06C00B
:1039100095ED9A95F1F700008111F5CF8091E800BF
:1039200085FF0DC050E040E063E070E0CE010196FD
:103930000E949F1E8091E8008E778093E8000F9090
:103940000F900F90DF91CF910895CF93DF93EC010B
:103950000E94981E823011F0843031F4BE0184E060
:10396000DF91CF910C94721CDF91CF910895BC012F
:1039700083E00C94721CCF93DF93EC010E94981E9D
:10398000823011F08430F9F482E08093E9008FEF07
:103990009091E800815095FD06C095ED9A95F1F75C
:1039A00000008111F5CF8091E80085FF0CC050E048
:1039B00040E066E070E0CE010E949F1E8091E8002A
:1039C0008E778093E800DF91CF910895CF93DF93B6
:1039D000EC010E94981E823011F08430B9F580917C
:1039E00019018823B1F180917F0287FF32C060E224
:1039F00082E08093E9008FEF9091E800815095FD7F
:103A000006C095ED9A95F1F700008111F5CF8091F0
:103A1000E80085FF1BC08091190170E050E040E094
:103A2000811104C050E040E068E070E0CE010E94E7
:103A30009F1E8091E8008E778093E80080E2FE016F
:103A4000AFE2B2E001900D928A95E1F7DF91CF915C
:103A5000089568E081E0CDCF80918402811109C092
:103A60000E942F200E948C208091E200846080932D
:103A7000E2000895109284020895089508950C9428
:103A8000211942E061EC81E00E94AB1F42E261EC4F
:103A900082E00C94AB1F80918702833009F45FC0F1
:103AA00030F48130C1F1823009F49BC008958A302E
:103AB00009F487C08B3009F46DC0893009F04EC01D
:103AC00080918602813209F049C080918A029091EA
:103AD0008B02029708F042C08091E800877F8093B4
:103AE000E8008091E80082FF35C09091F30080915A
:103AF000F200029729F48091F1008B7F813021F44C
:103B00008091F10080934F028091E8008B77809341
:103B1000E8000C94DF1F80918602813AF9F48091CD
:103B2000E800877F8093E80080918A0290918B0261
:103B3000892B61F460E28FE292E070E00E94EE1E59
:103B40008091E8008B778093E800089560E090E032
:103B500080E0F3CF809185028111C3CF08958091D9
:103B60008602813AD9F780918A0290918B02892B43
:103B7000A9F78091E800877F8093E8008091E800B2
:103B800080FFFCCF809119018093F1008091E800C3
:103B90008E77BDCF80918602813201F780918A02B3
:103BA00090918B02892BD1F68091E800877F8093DA
:103BB000E8000E94DF1F80918802809319010C9415
:103BC000461180918602813249F68091E800877F14
:103BD0008093E8000E94DF1F809189028093500249
:103BE000089580918602813A09F0B8CF8091E8006B
:103BF000877F8093E8008091E80080FFFCCF809170
:103C00005002C2CF84B7877F84BF0FB6F894A895BF
:103C100080916000886180936000109260000FBE08
:103C200080E890E00FB6F894809361009093610073
:103C30000FBE0E94F20C0E942F200E948C208091C7
:103C4000E20084608093E20078940E9415230E9431
:103C5000FC0C8FE091E00E94810C0E94060DFDCFCC
:103C60000C94321E292F33272330310519F168F4C3
:103C70002130310509F44AC02230310509F44BC026
:103C800090E080E030E020E028C02132310579F179
:103C900022323105A9F780E490E028EE33E0611587
:103CA0007105D9F08CEB90E02CE233E061307105C6
:103CB000A1F0E6CF99278130910599F0009741F066
:103CC0008230910589F00397D9F6E3EAF2E002C069
:103CD000EBEDF2E0849190E09F01FA0131832083C3
:103CE0000895E3ECF2E0F6CFE9EAF2E0F3CF89E001
:103CF00090E021EF32E06115710579F389E090E001
:103D00002AE033E06130710541F3BACF82E190E0FF
:103D10002AE133E0E2CF8BE390E02FED32E0DDCF1C
:103D200080918502843011F482E0089581E0089545
:103D300080915102811102C00C94901E0895AF929F
:103D4000BF92CF92DF92FF920F931F93CF93DF9397
:103D50006C01EB018A010E94FE1FF82E811123C025
:103D60000115110539F0F80180819181C81BD90B2B
:103D7000C80ED91EB12CA12C2097A9F08091E80083
:103D800085FD22C08091E8008E778093E8000115C0
:103D90001105A1F0F80180819181A80EB91EB182B0
:103DA000A08285E0F82E8F2DDF91CF911F910F918A
:103DB000FF90DF90CF90BF90AF9008950E94FE1FBC
:103DC0008823D1F2F82EEFCFF60181916F01809315
:103DD000F1002197FFEFAF1ABF0ACECFFC0180910F
:103DE0008C0290918D0286179707A0F061157105DE
:103DF00029F49091E8009E779093E80090E0611597
:103E0000710551F4911108C08091E80082FF34C01F
:103E100080E00895BC01F2CF809185028823C1F132
:103E20008530C1F18091E80083FD30C08091E800C9
:103E300082FDEACF8091E80080FFE1CF8091F3001E
:103E40002091F200382F6115710519F028303105E5
:103E500058F091E02830310509F090E02091E80019
:103E60002E772093E800CBCF81918093F1006150B1
:103E700071092F5F3F4FE7CF80918502882341F082
:103E8000853041F08091E80083FFBECF81E0089546
:103E900082E0089583E00895FC0180918C02909166
:103EA0008D0286179707A0F06115710529F480919E
:103EB000E8008E778093E80090E06115710551F479
:103EC000911108C08091E80082FF35C080E008951C
:103ED000BC01F2CF809185028823C9F18530C9F1F8
:103EE0008091E80083FD31C08091E80082FDEACF37
:103EF0008091E80080FFE1CF8091F3002091F200F3
:103F0000382F6115710519F02830310558F091E00E
:103F10002830310509F090E08091E8008E77809399
:103F2000E800CBCF84918093F10031966150710904
:103F30002F5F3F4FE6CF80918502882341F0853087
:103F400041F08091E80083FFBDCF81E0089582E0D9
:103F5000089583E00895982F973028F08F7080930C
:103F6000E90081E008959093E900242F762F50E036
:103F7000981731F07091EC002091ED005091F00015
:103F800021FD02C09F5FE8CF3091EB003E7F309370
:103F9000EB003091ED003D7F3093ED003091EB0070
:103FA00031603093EB007093EC002093ED00509360
:103FB000F0002091EE0027FDE5CF80E0089580918C
:103FC000860287FF13C08091E80082FF06C08091BF
:103FD000E8008B778093E80004C08091850281110E
:103FE000F2CF0895809185028823D9F38091E8006B
:103FF00080FFF8CF8091E8008E77ECCF2091E4002D
:104000003091E50095E6A9012091EC00822F8170A6
:1040100020FF06C08091E80080FF06C080E0089580
:104020002091E80022FD1AC080918502882389F042
:10403000853089F08091EB0085FD0FC02091E40070
:104040003091E50042175307F9F29150E1F684E010
:10405000089582E0089583E0089581E008950E9424
:104060009D200E94A520E0EEF0E0808181608083A9
:10407000E8EDF0E080818F77808319BCA7EDB0E098
:104080008C918E7F8C9380818F7E808310928402AE
:1040900008950F931F93CF93DF930E949D200E945A
:1040A000A520C8EDD0E088818F77888388818068DB
:1040B000888388818F7D888319BC10928502109235
:1040C0008102109283021092820200EE10E0F80149
:1040D00080818B7F808388818160888342E060E07B
:1040E00080E00E94AB1FE1EEF0E080818E7F808354
:1040F000E2EEF0E08081816080838081886080834F
:10410000F80180818E7F8083888180618883DF9140
:10411000CF911F910F910895E8EDF0E080818F7E9F
:104120008083E7EDF0E080818160808384E082BF5E
:1041300081E0809384020C944920E8EDF0E08081D6
:104140008E7F80831092E20008951092DA00109220
:10415000E10008951F920F920FB60F9211242F9332
:104160003F934F935F936F937F938F939F93AF93FF
:10417000BF93EF93FF938091E10082FF0BC080918A
:10418000E20082FF07C08091E1008B7F8093E10015
:104190000E9414238091DA0080FF19C08091D8001A
:1041A00080FF15C08091DA008E7F8093DA008091C5
:1041B000D90080FF96C080E189BD82E189BD09B444
:1041C00000FEFDCF81E0809385020E942C1D80912E
:1041D000E10080FF19C08091E20080FF15C080914E
:1041E000E2008E7F8093E2008091E2008061809304
:1041F000E2008091D80080628093D80019BC85E0ED
:10420000809385020E943E1D8091E10084FF2BC0B7
:104210008091E20084FF27C080E189BD82E189BDF1
:1042200089B5982F917080FFFBCF8091D8008F7D4A
:104230008093D8008091E1008F7E8093E10080918F
:10424000E2008F7E8093E2008091E20081608093A3
:10425000E20080918102882309F449C084E08093C0
:1042600085020E943F1D8091E10083FF29C080915B
:10427000E20083FF25C08091E100877F8093E10009
:1042800082E080938502109281028091E1008E7F0E
:104290008093E1008091E2008E7F8093E200809124
:1042A000E20080618093E20042E060E080E00E94F2
:1042B000AB1F8091F00088608093F0000E943D1D4C
:1042C000FF91EF91BF91AF919F918F917F916F91EE
:1042D0005F914F913F912F910F900FBE0F901F90C4
:1042E000189519BC109285020E943A1D70CF8091DA
:1042F000E30087FD93E090938502B3CF1F920F9266
:104300000FB60F9211242F933F934F935F936F93A8
:104310007F938F939F93AF93BF93CF93DF93EF934D
:10432000FF93D091E900DF708091EC00C82FC1703D
:1043300080FDC0E81092E9008091F000877F8093B3
:10434000F00078940E94C2211092E9008091F00060
:1043500088608093F000CD2BCF70C093E900FF916F
:10436000EF91DF91CF91BF91AF919F918F917F910D
:104370006F915F914F913F912F910F900FBE0F90D2
:104380001F9018951F93CF93DF93CDB7DEB7AA97F1
:104390000FB6F894DEBF0FBECDBF86E892E0209145
:1043A000F100FC012193CF01F2E08E389F07B9F7AD
:1043B0000E944B1D8091E80083FF1EC18091860200
:1043C000909187029A3008F017C1E92FF0E0E65289
:1043D000FC4D0C945823803899F0823809F00CC1B8
:1043E00080918A028F70873008F006C18093E900BF
:1043F0008091EB0085FB882780F91092E90006C0C8
:104400008091820290918302911182609091E800E4
:10441000977F9093E8008093F1001092F1008091D3
:10442000E8008E77E5C0882309F4D3C0823009F014
:10443000E3C0809188028111D6C080918A028F707A
:104440002FEF280F263008F0D7C08093E900209185
:10445000EB0020FFC8C0933031F48091EB00806204
:104460008093EB00C0C09091EB0090619093EB00C3
:1044700021E030E001C0220F8A95EAF72093EA009C
:104480001092EA008091EB008860EACF8111B4C0FD
:10449000109188021F778091E3008078812B8093B0
:1044A000E3008091E800877F8093E8000E94DF1F8F
:1044B0008091E80080FFFCCF8091E30080688093CA
:1044C000E30082E0111183E08093850295C080585B
:1044D000823008F091C080918802909189028C3DD1
:1044E00023E09207A1F583E08A838AE289834FB7AC
:1044F000F894DE01139620E03EE051E2E32FF0E075
:1045000050935700E49120FF03C0E295EF703F5FA6
:10451000EF708E2F90E0EA30C0F0C7968D939D9398
:104520002F5F243159F74FBF8091E800877F809338
:10453000E8006AE270E0CE0101960E94EE1E8091D2
:10454000E8008B778093E80057C0C096E7CF609172
:104550008A0270918B02AE014F5F5F4F0E94301E46
:10456000BC01892B09F448C09091E800977F909393
:10457000E80089819A810E944C1FE1CF8038E1F5E3
:104580008091E800877F8093E8008091810280938A
:10459000F10045CF811130C090918802923060F5D2
:1045A0008091E800877F8093E800909381020E94C9
:1045B000DF1F80918102882311F084E005C0809183
:1045C000E30087FDFACF81E0809385020E94411DC0
:1045D00013C080918802813079F481E0933009F032
:1045E00080E0809383021092E9008091E800877F49
:1045F0008093E8000E94DF1F8091E80083FF0AC0DB
:104600008091E800877F8093E8008091EB008062D2
:104610008093EB00AA960FB6F894DEBF0FBECDBF15
:10462000DF91CF911F9108950895CF9380918502D6
:104630008823A1F0C091E900CF709091EC00892F00
:10464000817090FD80E8C82B1092E9008091E8000D
:1046500083FD0E94C221CF70C093E900CF910895DD
:10466000AA1BBB1B51E107C0AA1FBB1FA617B70798
:1046700010F0A61BB70B881F991F5A95A9F78095B4
:104680009095BC01CD01089597FB072E16F4009478
:1046900007D077FD09D00E94302307FC05D03EF4F7
:1046A000909581959F4F0895709561957F4F0895DE
:1046B000EE0FFF1F0590F491E02D0994F999FECFBC
:1046C00092BD81BDF89A992780B50895A6E1B0E022
:1046D00044E050E00C949823A8E1B0E042E050E0C0
:1046E0000C949823262FF999FECF92BD81BDF89A9C
:1046F000019700B4021639F01FBA20BD0FB6F89426
:10470000FA9AF99A0FBE08950396272F0E947323F1
:104710000E947223252F0E947323242F0C9473234D
:104720000196272F0E9473230C947223DC01CB0186
:10473000FC01F999FECF06C0F2BDE1BDF89A3196B1
:1047400000B40D9241505040B8F70895F894FFCF4F
:10475000180A200A270A2C0A310A360A3B0A400A9C
:10476000450A4A0A4F0A540A1A0A1A0A1A0A1A0A5F
:104770001A0A1A0A1A0A1A0A0F0F0F0F670F670F81
:10478000B90FD50F3C0F3C0FE00F6C107B107B1066
:10479000D7103C0F3C0FE010551155115E115E1102
:1047A00060115E115E115E115511551165115E119A
:1047B0005E116511EB211322FC221322FC224622FA
:0847C0006722FC22BE22CA227E
:1047C8000002000202FC012808641E140A321E6F4F
:1047D8001CE61CBB1CB71CA51C01946697C6F6F703
:1047E800313332E200E900EA00B500B600B700CD87
:1047F800008301CC008A0192019401210223022442
:10480800022502260227022A02B300B4006F0070B4
:10481800008182830001E200E900EA00B500B600E9
:10482800B700CD008301CC008A01920194012102D6
:10483800230224022502260227022A02B300B4001A
:084848006F0070008182830003
:00000001FF
